S021000048616D6D696E67576569676874446973747269627574696F6E2E73726563DA
S1130000B5C00000D4C00000D2C00000D0C00000C1
S1130010CEC00000CCC00000CAC00000C8C00000B0
S1130020C6C00000C4C00000C2C00000C0C00000C0
S1130030BEC00000BCC000000FC200004AC20000E5
S113004085C20000C0C20000FBC2000036C300002D
S113005071C30000ACC30000E7C3000022C4000069
S1130060A6C00000A4C00000A2C00000A0C0000000
S11300709EC000009CC000009AC0000098C0000010
S113008096C0000094C0000092C0000090C0000020
S11300908EC000008CC000008AC0000088C0000030
S11300A086C0000084C0000082C0000080C0000040
S11300B07EC000007CC000007AC000009DC5000026
S11300C0D8C5000013C600004EC6000089C6000053
S11300D0C4C600006CC000006AC0000068C0000014
S11300E066C0000064C0000062C0000060C0000080
S11300F05EC000005CC000005AC0000058C0000090
S113010056C0000054C0000052C0000050C000009F
S11301104EC000004CC000004AC0000048C00000AF
S113012046C0000044C0000042C0000040C00000BF
S11301303EC00000F3C300002EC4000069C40000E8
S1130140A4C40000DFC400001AC5000030C00000D1
S11301502EC000002CC000002AC0000028C00000EF
S113016026C0000024C0000022C0000011241FBECD
S1130170CFEFCDBFDFE3DEBF00E00CBF10E2A0E0B5
S1130180B0E2EAE3F1E200E00BBF02C007900D9297
S1130190A831B107D9F720E2A8E1B0E201C01D926D
S11301A0AB3EB207E1F70E94350E0C949B1028CFAA
S11301B0CF93DF931F92CDB7DEB78FE390E0FC01BE
S11301C080818983F89489810F90DF91CF9108957C
S11301D0CF93DF931F92CDB7DEB789838FE390E08F
S11301E02981FC01208300000F90DF91CF910895B5
S11301F0CF93DF931F921F92CDB7DEB78A83D8DFE8
S1130200898380E590E020E530E0F90130812A819E
S1130210232BFC0120838981DBDF00000F900F90EA
S1130220DF91CF910895CF93DF931F921F92CDB7A3
S1130230DEB78A8380E590E0FC011282B9DF89830E
S113024080E590E020E530E0F90130812A81232B1C
S1130250FC0120838981BCDF00000F900F90DF91A7
S1130260CF910895CF93DF931F921F92CDB7DEB73E
S11302708A839EDF898380E590E020E530E0F90100
S11302802081322F2A8120952323FC012083898118
S11302909FDF00000F900F90DF91CF910895CF93CF
S11302A0DF931F92CDB7DEB789838981883019F037
S11302B089819EDF02C08981B6DF00000F90DF9143
S11302C0CF910895CF93DF931F92CDB7DEB7898383
S11302D080E590E0FC0191818981982381E0992354
S11302E009F480E00F90DF91CF910895CF93DF93CD
S11302F01F92CDB7DEB7898300008981E3DF982F91
S113030081E089278823C9F700000F90DF91CF91FE
S11303100895CF93DF9300D01F92CDB7DEB780E767
S113032090E089839A831C821B820DC089819A8103
S11303309C012F5F3F4F29833A832FEFFC012083D9
S11303408B818F5F8B838B81873080F388E0A7DF7D
S113035088E0CCDF000063E080E490E02FD08C8163
S1130360882311F481E07EDF2496CDBFDEBFDF91C8
S1130370CF910895CF93DF9300D0CDB7DEB78A83B2
S11303806B8316DF89838A81882F90E080599F4F81
S11303902A81222F30E020593F4FF9012081322F4A
S11303A02B8120952323FC012083898111DF000008
S11303B02396CDBFDEBFDF91CF9108951BBEFC0114
S11303C028ED24BF60830895CF93DF931F92CDB7A8
S11303D0DEB78FE390E0FC0180818983F894898102
S11303E00F90DF91CF910895CF93DF931F92CDB7F4
S11303F0DEB789838FE390E02981FC01208300002C
S11304000F90DF91CF910895CF93DF931F921F92A6
S1130410CDB7DEB78A838A81882F90E08B5B9F4DAE
S1130420FC0180818F3F09F4FFCFCEDF89838A816D
S1130430882F90E09C012B5B3F4DF90120812F5FB9
S11304408B5B9F4DFC0120838981CEDF00000F90E0
S11304500F90DF91CF9108951F920F9200903F006B
S11304600F92112400903B000F922F933F934F93D0
S11304705F936F937F938F939F93AF93BF93EF9308
S1130480FF93CF93DF93CDB7DEB78091182090917F
S11304901920892B31F08091182090911920FC01AA
S11304A019950000DF91CF91FF91EF91BF91AF912A
S11304B09F918F917F916F915F914F913F912F9178
S11304C00F9000923B000F9000923F000F901F90FE
S11304D018951F920F9200903F000F9211240090E4
S11304E03B000F922F933F934F935F936F937F93B0
S11304F08F939F93AF93BF93EF93FF93CF93DF9328
S1130500CDB7DEB780911A2090911B20892B31F052
S113051080911A2090911B20FC0119950000DF9115
S1130520CF91FF91EF91BF91AF919F918F917F9167
S11305306F915F914F913F912F910F9000923B00EB
S11305400F9000923F000F901F9018951F920F92EA
S113055000903F000F92112400903B000F922F93C4
S11305603F934F935F936F937F938F939F93AF9337
S1130570BF93EF93FF93CF93DF93CDB7DEB7809113
S11305801C2090911D20892B31F080911C2090918A
S11305901D20FC0119950000DF91CF91FF91EF918F
S11305A0BF91AF919F918F917F916F915F914F9187
S11305B03F912F910F9000923B000F9000923F00CB
S11305C00F901F9018951F920F9200903F000F926A
S11305D0112400903B000F922F933F934F935F930E
S11305E06F937F938F939F93AF93BF93EF93FF93F7
S11305F0CF93DF93CDB7DEB780911E2090911F205B
S1130600892B31F080911E2090911F20FC011995B7
S11306100000DF91CF91FF91EF91BF91AF919F9136
S11306208F917F916F915F914F913F912F910F9097
S113063000923B000F9000923F000F901F9018957E
S11306401F920F9200903F000F92112400903B00E4
S11306500F922F933F934F935F936F937F938F9357
S11306609F93AF93BF93EF93FF93CF93DF93CDB754
S1130670DEB78091202090912120892B31F0809148
S1130680202090912120FC0119950000DF91CF9149
S1130690FF91EF91BF91AF919F918F917F916F9156
S11306A05F914F913F912F910F9000923B000F90DB
S11306B000923F000F901F9018951F920F92009088
S11306C03F000F92112400903B000F922F933F9311
S11306D04F935F936F937F938F939F93AF93BF9346
S11306E0EF93FF93CF93DF93CDB7DEB780912220B2
S11306F090912320892B31F0809122209091232006
S1130700FC0119950000DF91CF91FF91EF91BF910A
S1130710AF919F918F917F916F915F914F913F9195
S11307202F910F9000923B000F9000923F000F908A
S11307301F9018951F920F9200903F000F92112462
S113074000903B000F922F933F934F935F936F93CF
S11307507F938F939F93AF93BF93EF93FF93CF9325
S1130760DF93CDB7DEB78091242090912520892B8B
S113077031F08091242090912520FC0119950000EE
S1130780DF91CF91FF91EF91BF91AF919F918F91A5
S11307907F916F915F914F913F912F910F900092B4
S11307A03B000F9000923F000F901F9018951F92EE
S11307B00F9200903F000F92112400903B000F9283
S11307C02F933F934F935F936F937F938F939F9355
S11307D0AF93BF93EF93FF93CF93DF93CDB7DEB780
S11307E08091262090912720892B31F0809126201A
S11307F090912720FC0119950000DF91CF91FF9182
S1130800EF91BF91AF919F918F917F916F915F9184
S11308104F913F912F910F9000923B000F900092C7
S11308203F000F901F9018951F920F9200903F0069
S11308300F92112400903B000F922F933F934F93FC
S11308405F936F937F938F939F93AF93BF93EF9334
S1130850FF93CF93DF93CDB7DEB78091282090919B
S11308602920892B31F08091282090912920FC01A6
S113087019950000DF91CF91FF91EF91BF91AF9156
S11308809F918F917F916F915F914F913F912F91A4
S11308900F9000923B000F9000923F000F901F902A
S11308A018951F920F9200903F000F921124009010
S11308B03B000F922F933F934F935F936F937F93DC
S11308C08F939F93AF93BF93EF93FF93CF93DF9354
S11308D0CDB7DEB780912A2090912B20892B31F05F
S11308E080912A2090912B20FC0119950000DF9122
S11308F0CF91FF91EF91BF91AF919F918F917F9194
S11309006F915F914F913F912F910F9000923B0017
S11309100F9000923F000F901F9018951F920F9216
S113092000903F000F92112400903B000F922F93F0
S11309303F934F935F936F937F938F939F93AF9363
S1130940BF93EF93FF93CF93DF93CDB7DEB780913F
S11309502C2090912D20892B31F080912C20909186
S11309602D20FC0119950000DF91CF91FF91EF91AB
S1130970BF91AF919F918F917F916F915F914F91B3
S11309803F912F910F9000923B000F9000923F00F7
S11309900F901F9018951F920F9200903F000F9296
S11309A0112400903B000F922F933F934F935F933A
S11309B06F937F938F939F93AF93BF93EF93FF9323
S11309C0CF93DF93CDB7DEB780912E2090912F2067
S11309D0892B31F080912E2090912F20FC011995C4
S11309E00000DF91CF91FF91EF91BF91AF919F9163
S11309F08F917F916F915F914F913F912F910F90C4
S1130A0000923B000F9000923F000F901F901895AA
S1130A101F920F9200903F000F92112400903B0010
S1130A200F922F933F934F935F936F937F938F9383
S1130A309F93AF93BF93EF93FF93CF93DF93CDB780
S1130A40DEB78091302090913120892B31F0809154
S1130A50302090913120FC0119950000DF91CF9155
S1130A60FF91EF91BF91AF919F918F917F916F9182
S1130A705F914F913F912F910F9000923B000F9007
S1130A8000923F000F901F9018951F920F920090B4
S1130A903F000F92112400903B000F922F933F933D
S1130AA04F935F936F937F938F939F93AF93BF9372
S1130AB0EF93FF93CF93DF93CDB7DEB780913220CE
S1130AC090913320892B31F0809132209091332002
S1130AD0FC0119950000DF91CF91FF91EF91BF9137
S1130AE0AF919F918F917F916F915F914F913F91C2
S1130AF02F910F9000923B000F9000923F000F90B7
S1130B001F9018951F920F9200903F000F9211248E
S1130B1000903B000F922F933F934F935F936F93FB
S1130B207F938F939F93AF93BF93EF93FF93CF9351
S1130B30DF93CDB7DEB78091342090913520892B97
S1130B4031F08091342090913520FC0119950000FA
S1130B50DF91CF91FF91EF91BF91AF919F918F91D1
S1130B607F916F915F914F913F912F910F900092E0
S1130B703B000F9000923F000F901F9018951F921A
S1130B800F9200903F000F92112400903B000F92AF
S1130B902F933F934F935F936F937F938F939F9381
S1130BA0AF93BF93EF93FF93CF93DF93CDB7DEB7AC
S1130BB08091362090913720892B31F08091362016
S1130BC090913720FC0119950000DF91CF91FF919E
S1130BD0EF91BF91AF919F918F917F916F915F91B1
S1130BE04F913F912F910F9000923B000F900092F4
S1130BF03F000F901F9018951F920F9200903F0096
S1130C000F92112400903B000F922F933F934F9328
S1130C105F936F937F938F939F93AF93BF93EF9360
S1130C20FF93CF93DF93CDB7DEB7809138209091B7
S1130C303920892B31F08091382090913920FC01A2
S1130C4019950000DF91CF91FF91EF91BF91AF9182
S1130C509F918F917F916F915F914F913F912F91D0
S1130C600F9000923B000F9000923F000F901F9056
S1130C7018951F920F9200903F000F92112400903C
S1130C803B000F922F933F934F935F936F937F9308
S1130C908F939F93AF93BF93EF93FF93CF93DF9380
S1130CA0CDB7DEB780913A2090913B20892B31F06B
S1130CB080913A2090913B20FC0119950000DF912E
S1130CC0CF91FF91EF91BF91AF919F918F917F91C0
S1130CD06F915F914F913F912F910F9000923B0044
S1130CE00F9000923F000F901F9018951F920F9243
S1130CF000903F000F92112400903B000F922F931D
S1130D003F934F935F936F937F938F939F93AF938F
S1130D10BF93EF93FF93CF93DF93CDB7DEB780916B
S1130D203C2090913D20892B31F080913C20909182
S1130D303D20FC0119950000DF91CF91FF91EF91C7
S1130D40BF91AF919F918F917F916F915F914F91DF
S1130D503F912F910F9000923B000F9000923F0023
S1130D600F901F9018951F920F9200903F000F92C2
S1130D70112400903B000F922F933F934F935F9366
S1130D806F937F938F939F93AF93BF93EF93FF934F
S1130D90CF93DF93CDB7DEB780913E2090913F2073
S1130DA0892B31F080913E2090913F20FC011995D0
S1130DB00000DF91CF91FF91EF91BF91AF919F918F
S1130DC08F917F916F915F914F913F912F910F90F0
S1130DD000923B000F9000923F000F901F901895D7
S1130DE01F920F9200903F000F92112400903B003D
S1130DF00F922F933F934F935F936F937F938F93B0
S1130E009F93AF93BF93EF93FF93CF93DF93CDB7AC
S1130E10DEB78091402090914120892B31F0809160
S1130E20402090914120FC0119950000DF91CF9161
S1130E30FF91EF91BF91AF919F918F917F916F91AE
S1130E405F914F913F912F910F9000923B000F9033
S1130E5000923F000F901F9018951F920F920090E0
S1130E603F000F92112400903B000F922F933F9369
S1130E704F935F936F937F938F939F93AF93BF939E
S1130E80EF93FF93CF93DF93CDB7DEB780914220EA
S1130E9090914320892B31F08091422090914320FE
S1130EA0FC0119950000DF91CF91FF91EF91BF9163
S1130EB0AF919F918F917F916F915F914F913F91EE
S1130EC02F910F9000923B000F9000923F000F90E3
S1130ED01F901895CF93DF9300D0CDB7DEB78A83E8
S1130EE09B8372DA89838A819B818115984039F4C6
S1130EF061E083E03FDA64E083E03CDA27C08A8182
S1130F009B818034984039F462E083E033DA64E012
S1130F1083E030DA1BC08A819B818115994039F4C2
S1130F2061E084E027DA64E084E024DA0FC08A8197
S1130F309B8181159A4039F461E085E01BDA64E015
S1130F4085E018DA03C089814FDA04C081E05CDAF5
S1130F5089814ADA2396CDBFDEBFDF91CF91089510
S1130F60CF93DF931F921F92CDB7DEB789839A8305
S1130F7089819A81FC018481282F206189819A8149
S1130F80FC01248300000F900F90DF91CF9108950E
S1130F90CF93DF93CDB7DEB72597CDBFDEBF89836F
S1130FA09A836B834C832D839B818C81892B982F0F
S1130FB08D81882311F088E001C080E0892B282FDF
S1130FC089819A81FC01258300002596CDBFDEBF6F
S1130FD0DF91CF910895CF93DF931F921F92CDB7E6
S1130FE0DEB789839A8389819A81FC018481282FC1
S1130FF0286089819A81FC01248300000F900F905E
S1131000DF91CF910895CF93DF9300D0CDB7DEB7B2
S113101089839A836B8389819A81FC018581982FC6
S11310209F738B81892B282F89819A81FC012583C9
S113103000002396CDBFDEBFDF91CF910895CF93FB
S1131040DF931F921F92CDB7DEB789839A8389817C
S11310509A81FC018181882F90E08072992721E098
S1131060892B09F420E0822F0F900F90DF91CF910C
S11310700895CF93DF931F921F92CDB7DEB7898374
S11310809A8389819A81FC018181882F90E08078FC
S1131090992721E0892B09F420E0822F0F900F90EB
S11310A0DF91CF910895CF93DF93CDB7DEB780E181
S11310B095E7A0E7B0E0BC01CD01DF91CF910895A1
S11310C0CF93DF931F92CDB7DEB71982ECDFDC013B
S11310D0CB012981222F30E004C0B695A7959795BE
S11310E087952A95D2F7BC01CD010F90DF91CF915E
S11310F00895CF93DF93CDB7DEB7E2DFDC01CB01F8
S1131100BC01CD01DF91CF910895CF93DF93CDB78B
S1131110DEB7EFDFDC01CB01BC01CD01DF91CF9164
S11311200895CF93DF931F921F92CDB7DEB78983C3
S11311309A8389819A81892B09F486C089819A814D
S11311408115944021F464E080E014D97DC0898144
S11311509A818038914021F462E080E00BD974C018
S113116089819A818038934021F461E081E002D939
S11311706BC089819A818115924021F462E081E0FB
S1131180F9D862C089819A818115984021F461E07F
S113119083E0F0D859C089819A818115994021F45E
S11311A061E084E0E7D850C089819A8181159A4032
S11311B021F461E085E0DED847C089819A818034DA
S11311C0984021F462E083E0D5D83EC089819A81B9
S11311D08039984021F464E083E0CCD835C089811B
S11311E09A81803C984021F468E083E0C3D82CC005
S11311F089819A81803C994021F468E084E0BAD8DE
S113120023C089819A81803A984021F460E183E087
S1131210B1D81AC089819A81803A994021F460E159
S113122084E0A8D811C089819A818038944021F43F
S113123060E483E09FD808C089819A81803A944011
S113124019F460E485E096D800000F900F90DF91C8
S1131250CF9108950F931F93CF93DF93CDB7DEB74C
S11312602597CDBFDEBF8A839B836C837D838A8170
S11312709B8157DF8A819B8160E0C5DE8C819D81E3
S1131280FC0126818C819D81FC0145818C819D819D
S1131290FC0134818A819B81632F7ADE36DF9B01D6
S11312A0AC018C819D81FC0180819181A281B381FB
S11312B0EA81FB8189019A01AC01BD01CF0148D0CB
S11312C089838A819B8187DE8A819B8149DE89812A
S11312D02596CDBFDEBFDF91CF911F910F91089569
S11312E0CF93DF9300D0CDB7DEB789839A836B8326
S11312F0000089819A81A3DE982F81E089278823C1
S1131300C1F789819A812B81FC01208380E090E0E0
S11313102396CDBFDEBFDF91CF910895CF93DF93A6
S11313201F921F92CDB7DEB789839A83000089810B
S11313309A819FDE982F81E089278823C1F78981CC
S11313409A81FC0180810F900F90DF91CF910895D5
S1131350EF92FF920F931F93CF93DF93CDB7DEB736
S11313606F97CDBFDEBF8E8B9F8B488F598F6A8F4F
S11313707B8F0C8F1D8F2E8F3F8F8C8D9D8DAE8D0F
S1131380BF8D689412F8B695A7959795879516948E
S1131390D1F78E879F87A88BB98B8C8D9D8DAE8D51
S11313A0BF8D072E76E1B695A795979587957A9583
S11313B0D1F7702D8A879B87AC87BD878E899F89DB
S11313C0FC018481882F90E084709927892BC1F4D3
S11313D08E859F85A889B989B695A7959795879590
S11313E08E879F87A88BB98B8A859B85AC85BD85A5
S11313F0B695A795979587958A879B87AC87BD8770
S1131400288D398D4A8D5B8D8E859F85A889B989F4
S113141082179307A407B50768F0288D398D4A8D84
S11314205B8D8A859B85AC85BD85281739074A075E
S11314305B0710F480E03CC18E899F89FC018481A4
S1131440882F90E084709927892B61F4888D998D79
S1131450AA8DBB8D880F991FAA1FBB1F888F998FD8
S1131460AA8FBB8F8FEF90E0A0E0B0E08E839F83C4
S1131470A887B9878C8D9D8DAE8DBF8D288D398DB4
S11314804A8D5B8DBC01CD0134D6DA01C9018A8B4A
S11314909B8BAC8BBD8B89EF898328C02A893B89C0
S11314A04C895D898E819F81A885B9852817390764
S11314B04A075B07F8F08E819F81A885B985880F5C
S11314C0991FAA1FBB1F8E839F83A887B987898111
S11314D08D3F4CF48E819F81A885B98581608E8370
S11314E09F83A887B98789818F5F898389818730A2
S11314F0ACF201C00000898188230CF088C0888D7B
S1131500998DAA8DBB8D880F991FAA1FBB1F880FA9
S1131510991FAA1FBB1F880F991FAA1FBB1F9C01DD
S1131520AD018C8D9D8DAE8DBF8D821B930BA40B55
S1131530B50B8C8F9D8FAE8FBF8F89818E3F8CF5BD
S11315408981082E000C990B2DEF3FEF281B390BD6
S11315508C8D9D8DAE8DBF8D7C018D0104C0EE0CF4
S1131560FF1C001F111F2A95D2F7A8019701888D2F
S1131570998DAA8DBB8DB695A79597958795820F62
S1131580931FA41FB51F288D398D4A8D5B8DBC0117
S1131590CD01AFD5DA01C9018A839B83AC83BD83B6
S11315A06EC08981082E000C990B9C012D5F3F4F62
S11315B0888D998DAA8DBB8D04C0880F991FAA1F91
S11315C0BB1F2A95D2F7888F998FAA8FBB8F888DDE
S11315D0998DAA8DBB8D9C01AD0156954795379584
S11315E027958C8D9D8DAE8DBF8D820F931FA41F6B
S11315F0B51F288D398D4A8D5B8DBC01CD0179D500
S1131600DA01C9018A839B83AC83BD8338C0898195
S1131610082E000C990B9C012D5F3F4F888D998DEE
S1131620AA8DBB8D04C0880F991FAA1FBB1F2A95C2
S1131630D2F7888F998FAA8FBB8F888D998DAA8DA9
S1131640BB8D9C01AD0156954795379527958C8D9B
S11316509D8DAE8DBF8D820F931FA41FB51F288D46
S1131660398D4A8D5B8DBC01CD0143D5DA01C901A9
S11316700197A109B1098A839B83AC83BD838A81C5
S11316809B81AC81BD81892F9A2FAB2FBB27982FCB
S11316909F7089818295807F292F282B8E899F892D
S11316A0FC0127832A818E899F89FC01268381E09E
S11316B06F96CDBFDEBFDF91CF911F910F91FF9049
S11316C0EF900895CF93DF93CDB7DEB72E97CDBFBC
S11316D0DEBF89879A876B877C874D875E871B82ED
S11316E01C8219821A8269C029853A8589819A8166
S11316F0820F931FFC0180818A337CF029853A850F
S113170089819A81820F931FFC0180818062082E57
S1131710000C990B875591090CC029853A8589815C
S11317209A81820F931FFC018081082E000C990B73
S1131730C0978D839E8389819A81019629853A85F4
S1131740820F931FFC0180818A3384F089819A81FE
S1131750019629853A85820F931FFC01808180625E
S1131760082E000C990B875591090DC089819A8127
S1131770019629853A85820F931FFC018081082EEA
S1131780000C990BC0978F8398872D853E858B819C
S11317909C81820F931F2D81322F3295307F2F81B0
S11317A0232BFC01208389819A81029689839A8361
S11317B08B819C8101968B839C838B859C8529815D
S11317C03A812817390708F48FCF8D859E852E9688
S11317D0CDBFDEBFDF91CF910895CF93DF93CDB717
S11317E0DEB72A97CDBFDEBF8D839E836F83788754
S11317F049875A871B821C8219821A823FC08B81B7
S11318009C819C012F5F3F4F2B833C8329853A8524
S1131810820F931F4D815E8129813A81240F351FE8
S1131820F901208122952F70222F30E02050304E74
S1131830F9012081FC0120838B819C819C012F5F15
S11318403F4F2B833C8329853A85820F931F4D811B
S11318505E8129813A81240F351FF9012081222FCD
S113186030E02F7033272050304EF9012081FC01E5
S1131870208389819A81019689839A838F819885AF
S113188029813A812817390708F4B9CF29853A857F
S11318908B819C81820F931FFC01108200002A9689
S11318A0CDBFDEBFDF91CF910895CF93DF93CDB746
S11318B0DEB72A97CDBFDEBF8A878A8589831A82DD
S11318C089818B838B818C838C8186958695869583
S11318D08D838D81882F90E0880F991F8295929532
S11318E0907F9827807F98279A5F8E839F838A8131
S11318F08823A9F0898188878885882F90E09C01B6
S11319002770332781E090E002C0880F991F2A9541
S1131910E2F7282F8E819F81FC01258314C08981E1
S113192089878985882F90E09C012770332781E07F
S113193090E002C0880F991F2A95E2F7282F8E8124
S11319409F81FC01268300002A96CDBFDEBFDF9174
S1131950CF910895CF93DF93CDB7DEB72A97CDBF4C
S1131960DEBF8A878A85898381E08A8389818B8324
S11319708B818C838C818695869586958D838D81CC
S1131980882F90E0880F991F82959295907F9827D1
S1131990807F98279A5F8E839F838A818823A9F00A
S11319A0898188878885882F90E09C012770332758
S11319B081E090E002C0880F991F2A95E2F7282F52
S11319C08E819F81FC01258314C089818987898543
S11319D0882F90E09C012770332781E090E002C0BB
S11319E0880F991F2A95E2F7282F8E819F81FC0189
S11319F0268300002A96CDBFDEBFDF91CF910895E4
S1131A00CF93DF93CDB7DEB70000DF91CF91089578
S1131A10CF93DF93CDB7DEB72B97CDBFDEBF8A87D9
S1131A206B878A8589838B858A8389818B838B8164
S1131A308C838C818695869586958D838D81882F60
S1131A4090E0880F991F82959295907F9827807FC8
S1131A5098279A5F8E839F838A818130A9F4898134
S1131A6088878885882F90E09C012770332781E040
S1131A7090E002C0880F991F2A95E2F7282F8E81E3
S1131A809F81FC01218317C08A818823A1F4898165
S1131A9089878985882F90E09C012770332781E00E
S1131AA090E002C0880F991F2A95E2F7282F8E81B3
S1131AB09F81FC01228300002B96CDBFDEBFDF9106
S1131AC0CF910895CF93DF9300D0CDB7DEB789834C
S1131AD09A836B8389819A81FC018081982F907FFE
S1131AE08B81892B282F89819A81FC012083000016
S1131AF02396CDBFDEBFDF91CF910895CF93DF93BF
S1131B0000D0CDB7DEB789839A836B838B8188231A
S1131B1059F489819A81FC0180858E6F282F8981EF
S1131B209A81FC0120870AC089819A81FC01818500
S1131B30282F216089819A81FC0121870000239646
S1131B40CDBFDEBFDF91CF910895CF93DF9300D057
S1131B50CDB7DEB789839A836B8389819A81FC012F
S1131B608181982F987F8B81892B282F89819A8155
S1131B70FC01218300002396CDBFDEBFDF91CF910E
S1131B800895CF93DF93CDB7DEB72B97CDBFDEBFDC
S1131B90888799876A877B878A859B85FC018481EE
S1131BA08D838A859B85FC0185818E838A859B85AF
S1131BB0FC0186818F838A859B85FC0180819181CC
S1131BC0A281B38189839A83AB83BC8388859985F9
S1131BD0803A984021F460E183E00E94BA0188854C
S1131BE09985803A994021F460E184E00E94BA0129
S1131BF0888599859E012F5F3F4FB9012BDB882390
S1131C0011F081E001C080E02B96CDBFDEBFDF91F3
S1131C10CF910895CF93DF9300D0CDB7DEB78983FA
S1131C209A836B8389819A816B815ADB2396CDBF1A
S1131C30DEBFDF91CF910895CF93DF9300D01F9241
S1131C40CDB7DEB789839A836B837C8389819A813C
S1131C5065DB282F8B819C81FC0120830000249666
S1131C60CDBFDEBFDF91CF910895CF93DF9300D036
S1131C701F92CDB7DEB70AD219821A82CE0104961A
S1131C80BC0180EA98E0D8DF8C81883719F4198286
S1131C901A82FBC18C818B3621F4198281E08A83FC
S1131CA0F4C18C81803721F4198282E08A83EDC1EA
S1131CB08A81813021F58C818A3019F08C818D30B4
S1131CC091F48981882F90E0855A9F4DFC01108200
S1131CD08981882F90E04BED50E2BC018BE590E2C6
S1131CE0F1DC1A82D2C1898191E0980F9983882FFF
S1131CF090E02C81855A9F4DFC012083BFCF8A81BF
S1131D00823009F0BBCF8C818A3021F08C818D30F8
S1131D1009F0ABC18981882F90E0855A9F4DFC0161
S1131D2010828981882F90E04BE450E2BC018BE55E
S1131D3090E2C8DC80E00EDE00000000000000003D
S1131D40000000000000000000000000000000008F
S1131D50000000000000000000000000000000007F
S1131D60000000000000000000000000000000006F
S1131D70000000000000000000000000000000005F
S1131D80000000000000000000000000000000004F
S1131D90000000000000000000000000000000003F
S1131DA0000000000000000000000000000000002F
S1131DB0000000000000000000000000000000001F
S1131DC0000000000000000000000000000000000F
S1131DD000000000000000000000000000000000FF
S1131DE000000000000000000000000000000000EF
S1131DF000000000000000000000000000000000DF
S1131E0000000000000000000000000000000000CE
S1131E1000000000000000000000000000000000BE
S1131E2000000000000000000000000000000000AE
S1131E30000000000000000000000000000000009E
S1131E40000000000000000000000000000000008E
S1131E50000000000000000000000000000000007E
S1131E60000000000000000000000000000000006E
S1131E70000000000000000000000000000000005E
S1131E80000000000000000000000000000000004E
S1131E90000000000000000000000000000000003E
S1131EA0000000000000000000000000000000002E
S1131EB0000000000000000000000000000000001E
S1131EC0000000000000000080914B20809344201B
S1131ED000000000000000000000000000000000FE
S1131EE000000000000000000000000000000000EE
S1131EF000000000000000000000000000000000DE
S1131F0000000000000000000000000000000000CD
S1131F1000000000000000000000000000000000BD
S1131F2000000000000000000000000000000000AD
S1131F30000000000000000000000000000000009D
S1131F40000000000000000000000000000000008D
S1131F50000000000000000000000000000000007D
S1131F60000000000000000000000000000000006D
S1131F70000000000000000000000000000000005D
S1131F80000000000000000000000000000000004D
S1131F90000000000000000000000000000000003D
S1131FA0000000000000000000000000000000002D
S1131FB0000000000000000000000000000000001D
S1131FC0000000000000000000000000000000000D
S1131FD000000000000000000000000000000000FD
S1131FE000000000000000000000000000000000ED
S1131FF000000000000000000000000080E055DC4C
S11320008981882F90E04BE550E2BC018BE490E29B
S1132010E4DB62E780EA98E0FDDD1B820EC08B8181
S1132020882F90E0855A9F4DFC018081682F80EABB
S113203098E0F0DD8B818F5F8B838B81282F30E0DC
S11320408981882F90E00197880F991F28173907F5
S113205034F38981805D682F80EA98E0DBDD6AE0F3
S113206080EA98E0D7DD1A8210C08981803410F0AC
S11320701A8204CE898191E0980F9983882F90E089
S11320802C81855A9F4DFC012083F8CDCF93DF939B
S1132090CDB7DEB70E948901B3DC61E083E1B8DC2F
S11320A060E082E1B5DC61E080E0B2DC61E085E023
S11320B0AFDC85E04FDC61E086E0AADC86E04ADC48
S11320C060E170E280EA98E05CDD80E098E00E94E4
S11320D06A0760E080E098E038DD60E080E098E046
S11320E00DDD63E080E098E0EDDC0000DF91CF914E
S11320F00895A1E21A2EAA1BBB1BFD010DC0AA1F45
S1132100BB1FEE1FFF1FA217B307E407F50720F05C
S1132110A21BB30BE40BF50B661F771F881F991FD7
S11321201A9469F760957095809590959B01AC0120
S10D2130BD01CF010895F894FFCF1C
S113213A30313233343536373839414243444546EF
S10B214A0096000003000000F0
S9030000FC
